:100000000C945D000C94A4030C947D030C94850067
:100010000C9485000C9485000C9485000C9485004C
:100020000C9485000C9485000C9485000C9485003C
:100030000C9485000C9485000C9485000C9485002C
:100040000C9433030C9485000C94F1030C94CB03B3
:100050000C9485000C9485000C9485000C9485000C
:100060000C9485000C94850000000008000201003B
:100070000003040700000000000000000000000072
:10008000250028002B0000000000240027002A0083
:10009000040404040404040402020202020203032E
:1000A0000303030301020408102040800102040836
:1000B0001020010204081020230411241FBECFEFDA
:1000C000D8E0DEBFCDBF22E0A0E7B1E001C01D92C5
:1000D000AD33B207E1F711E0A0E0B1E0E0EFFFE0FF
:1000E00002C005900D92A037B107D9F710E0CDE519
:1000F000D0E004C02197FE010E94F007CC35D10763
:10010000C9F70E9474040C94F6070C94000090E068
:10011000FC01EC55FF4F249180579F4FFC018491C7
:10012000882399F090E0880F991FFC01EA57FF4F50
:10013000A591B491FC01E458FF4F859194918FB73C
:10014000F894EC91E22BEC938FBF089590E0FC01C2
:10015000E859FF4F2491FC01EC55FF4F3491FC010D
:10016000E057FF4FE491EE23C9F0222339F023300A
:1001700001F1A8F4213019F1223029F1F0E0EE0F5D
:10018000FF1FE458FF4FA591B4918FB7F894EC91FD
:10019000611126C030953E233C938FBF08952730D0
:1001A000A9F02830C9F0243049F7809180008F7D74
:1001B00003C0809180008F7780938000DFCF84B56B
:1001C0008F7784BDDBCF84B58F7DFBCF8091B0006E
:1001D0008F778093B000D2CF8091B0008F7DF9CF20
:1001E0003E2BDACF3FB7F894809180019091810146
:1001F000A0918201B091830126B5A89B05C02F3F35
:1002000019F00196A11DB11D3FBFBA2FA92F982F3C
:100210008827BC01CD01620F711D811D911D42E037
:10022000660F771F881F991F4A95D1F708958F92FF
:100230009F92AF92BF92CF92DF92EF92FF920E9475
:10024000F2004B015C018AE0C82ED12CE12CF12C8C
:100250000E94F200681979098A099B09683E734077
:1002600081059105A8F321E0C21AD108E108F1083F
:1002700088EE880E83E0981EA11CB11CC114D10425
:10028000E104F10429F7FF90EF90DF90CF90BF9049
:10029000AF909F908F9008950895AF92BF92CF92A4
:1002A000DF92EF92FF920F931F93CF93DF936C0136
:1002B0007B018B01040F151FEB015E01AE18BF0817
:1002C000C017D10759F06991D601ED91FC910190C9
:1002D000F081E02DC6010995892B79F7C501DF91E1
:1002E000CF911F910F91FF90EF90DF90CF90BF9033
:1002F000AF900895FC01538D448D252F30E0842F5D
:1003000090E0821B930B541710F0CF96089501973D
:100310000895FC01918D828D981761F0A28DAE0F2A
:10032000BF2FB11D5D968C91928D9F5F9F73928FB1
:1003300090E008958FEF9FEF0895FC01918D828DDD
:10034000981731F0828DE80FF11D858D90E00895AA
:100350008FEF9FEF0895FC01918D228D892F90E002
:10036000805C9F4F821B91098F739927089584E8C1
:1003700091E00E94AB0121E0892B09F420E0822F5B
:10038000089580E090E0892B29F00E94B701811147
:100390000C9400000895FC01A48DA80FB92FB11D85
:1003A000A35ABF4F2C91848D90E001968F739927AB
:1003B000848FA689B7892C93A089B1898C91837089
:1003C00080648C93938D848D981306C00288F38982
:1003D000E02D80818F7D80830895EF92FF920F93AF
:1003E0001F93CF93DF93EC0181E0888F9B8D8C8DE1
:1003F00098131AC0E889F989808185FF15C09FB7D5
:10040000F894EE89FF896083E889F9898081837097
:10041000806480839FBF81E090E0DF91CF911F9146
:100420000F91FF90EF900895F62E0B8D10E00F5F67
:100430001F4F0F731127E02E8C8D8E110CC00FB63D
:1004400007FCFACFE889F989808185FFF5CFCE01D5
:100450000E94CB01F1CFEB8DEC0FFD2FF11DE35A84
:10046000FF4FF0829FB7F8940B8FEA89FB89808158
:100470008062CFCFCF93DF93EC01888D8823B9F0D2
:10048000AA89BB89E889F9898C9185FD03C080819F
:1004900086FD0DC00FB607FCF7CF8C9185FFF2CF1C
:1004A000808185FFEDCFCE010E94CB01E9CFDF91A6
:1004B000CF9108950F931F93CF93DF93EC01062FF5
:1004C000142F60E08E850E94A6009C858D859CBDC2
:1004D0008DBD0EBD00000DB407FEFDCF8EB51EBD57
:1004E00000000DB407FEFDCF1EB561E08E850E94B1
:1004F000A600812FDF91CF911F910F91089540E0C9
:100500000C945A0208950F931F93CF93DF93EC013D
:10051000E881F9810084F185E02D0995892BB1F0FE
:100520006DE0CE010E947F02082F60E0CE010E94A4
:100530007F02182F402F6DE8CE010E945A02812FB2
:1005400090E0DF91CF911F910F9108958FEF9FEF72
:10055000F8CFCF93DF93EC01E881F9810084F18536
:10056000E02D0995892B69F08E899F8901969F8BD3
:100570008E8B60E0CE010E947F0290E0DF91CF91F0
:1005800008958FEF9FEFFACFCF93DF93EC0163E1F4
:100590000E947F0290E02E893F89821B930BDF919E
:1005A000CF910895AF92BF92CF92DF92FF920F93B7
:1005B0001F93CF93DF936C015B01EA0162E20E941B
:1005C0007F02F82E90E09C012C0F3D1F2F3F31053C
:1005D00029F020F0CFEFD0E0C81BD90B8501AC0E7D
:1005E000BD1E0A151B0541F0F80141918F0160E81D
:1005F000C6010E945A02F5CF4C2F4F0D62EAC60188
:100600000E945A02CE01DF91CF911F910F91FF906E
:10061000DF90CF90BF90AF900895CF93DF931F925C
:10062000CDB7DEB76983DC01ED91FC910280F381E7
:10063000E02D41E050E0BE016F5F7F4F09950F90C4
:10064000DF91CF91089590E080E00895FC01019042
:100650000020E9F73197AF01481B590BBC0184E832
:1006600091E00C944D011F920F920FB60F9211243E
:100670002F933F938F939F93AF93BF9380917C0170
:1006800090917D01A0917E01B0917F0130917B011D
:1006900023E0230F2D3758F50196A11DB11D20939E
:1006A0007B0180937C0190937D01A0937E01B093A8
:1006B0007F018091800190918101A0918201B09190
:1006C00083010196A11DB11D80938001909381014A
:1006D000A0938201B0938301BF91AF919F918F91BD
:1006E0003F912F910F900FBE0F901F90189526E805
:1006F000230F0296A11DB11DD2CF1F920F920FB6EC
:100700000F9211242F933F934F935F936F937F9397
:100710008F939F93AF93BF93EF93FF93E091020169
:10072000F09103010995FF91EF91BF91AF919F91D6
:100730008F917F916F915F914F913F912F910F908A
:100740000FBE0F901F9018951F920F920FB60F9229
:1007500011242F933F934F935F936F937F938F93C6
:100760009F93AF93BF93EF93FF93E0910001F091BC
:1007700001010995FF91EF91BF91AF919F918F91E9
:100780007F916F915F914F913F912F910F900FBE8D
:100790000F901F9018951F920F920FB60F92112471
:1007A0002F933F934F935F936F937F938F939F9379
:1007B000AF93BF93EF93FF9384E891E00E94CB0146
:1007C000FF91EF91BF91AF919F918F917F916F9129
:1007D0005F914F913F912F910F900FBE0F901F90FF
:1007E00018951F920F920FB60F9211242F938F938B
:1007F0009F93EF93FF93E0919401F0919501808195
:10080000E0919A01F0919B0182FD1BC09081809143
:100810009D018F5F8F7320919E01821741F0E091BF
:100820009D01F0E0EC57FE4F958F80939D01FF9165
:10083000EF919F918F912F910F900FBE0F901F906E
:1008400018958081F4CFE4E8F1E01382128288EEFB
:1008500093E0A0E0B0E084839583A683B78389E02A
:1008600091E09183808385EC90E09587848784EC88
:1008700090E09787868780EC90E0918B808B81EC6D
:1008800090E0938B828B82EC90E0958B848B86EC4E
:1008900090E0978B868B118E128E138E148EE1E270
:1008A000F2E0138212828BE191E09183808380E5F4
:1008B000848781E085878AE090E09787868789E052
:1008C00090E0918B808B82E090E0938B828B158AF5
:1008D000148A178A168A118E108E138E128E148225
:1008E0001582168217820895CF93DF93CDB7DEB7B6
:1008F000A1970FB6F894DEBF0FBECDBF789484B534
:10090000826084BD84B5816084BD85B5826085BD0B
:1009100085B5816085BD80916E00816080936E0099
:10092000109281008091810082608093810080918B
:10093000810081608093810080918000816080933C
:1009400080008091B10084608093B1008091B000FC
:1009500081608093B00080917A00846080937A00F7
:1009600080917A00826080937A0080917A00816021
:1009700080937A0080917A00806880937A00109248
:10098000C100E0919401F091950182E08083E091B3
:100990009001F09191011082E0919201F091930108
:1009A0008FEC808310929C01E0919801F091990165
:1009B00086E08083E0919601F091970180818061CB
:1009C0008083E0919601F091970180818860808317
:1009D000E0919601F0919701808180688083E09199
:1009E0009601F091970180818F7D808383E00E9442
:1009F000870082E00E94870088E00E94870085E0EF
:100A00000E94870089E291E00E94260387E391E03B
:100A10000E94260380912F020E948700809131025C
:100A20000E94870060E0809131020E94A6000E942F
:100A3000170161E0809131020E94A6000E94170117
:100A400061E080912F020E94A6001FB7F894809168
:100A50007001811124C0EAE9F0E08491EEEAF0E04F
:100A60009491E82FF0E0EE0FFF1FEA57FF4FA5919A
:100A7000B491EC91E92321F461E08AE00E94A600A0
:100A80008AE00E9487008CB580618CBD8CB5806443
:100A90008CBD8DE00E9487008BE00E9487008091D2
:100AA00070018F5F809370011FBF62E481E292E06A
:100AB0000E947F02823149F08AE391E00E9426037E
:100AC00087E391E00E942603FFCF40E861E881E2DE
:100AD00092E00E945A0280E49EE090933602809356
:100AE00035024CE666E881E292E00E945A0240E458
:100AF00067E881E292E00E945A0240E068E881E201
:100B000092E00E945A0240E06EE881E292E00E9488
:100B10005A0240E06FE881E292E00E945A026CE0E3
:100B200081E292E00E947F02482F43606CE881E2FC
:100B300092E00E945A0244E066EA81E292E00E945A
:100B40005A024FE869E881E292E00E945A0241E8C5
:100B500061E881E292E00E945A029AE0892E912C8B
:100B6000A12CB12C66246394712C34E6E32EF12C75
:100B700080E0C82E80E0D82E62E181E292E00E94FF
:100B80007F02182F10923A02109239026DE181E231
:100B900092E00E947F02482F4E7F6DE981E292E051
:100BA0000E945A02412F62E981E292E00E945A02B9
:100BB00016FF3CC015FD3AC0109238021092370261
:100BC0008091390290913A0262E2892B09F463E143
:100BD00081E292E00E947F02082F10E060E181E252
:100BE00092E00E947F02482F6DE881E292E00E942D
:100BF0005A0241E861E881E292E00E945A02012B28
:100C000049F585E00E94870060E085E00E94A6002B
:100C100010920401C114D10409F4AECF0E94B701AF
:100C2000882309F4A5CF0E940000A2CF61E081E2F1
:100C300092E00E947F02863821F340E06DE881E275
:100C400092E00E945A0246E861E881E292E00E9446
:100C50005A02D7CF80E591E00E94260381E292E01C
:100C60000E94C402892B09F4C8C081E292E00E946C
:100C7000A9028C0190937A0180937901682F84E80E
:100C800091E00E94ED010733110509F0AAC02FB7CA
:100C9000F89480917C0190917D01A0917E01B091AA
:100CA0007F012FBF409175015091760160917701CE
:100CB000709178018C019D01041B150B260B370BDD
:100CC000B901A801483C51056105710538F28093CE
:100CD000750190937601A0937701B093780180918C
:100CE000730190917401892B49F580917101909164
:100CF0007201892B19F57092740160927301F09260
:100D00007201E092710110917301612F82E00E94E3
:100D1000A600612F83E00E94A60080910401882331
:100D200009F49CCF009171011091720185E00E943D
:100D300087000115110559F460E00DC0109274018F
:100D4000109273011092720110927101DCCF0F3F6B
:100D5000110529F461E085E00E94A6007FCFEDE651
:100D6000F0E08491833019F140F48130B1F08230A9
:100D7000C9F00038110574F7DFCF873011F18830E2
:100D800041F18430B1F780918000806280938000CF
:100D900010938B0000938A0061CF84B5806884BD76
:100DA00007BD5CCF84B5806284BD08BD57CF8091FC
:100DB00080008068809380001093890000938800F1
:100DC0004DCF8091B00080688093B0000093B30055
:100DD00045CF8091B00080628093B0000093B40052
:100DE0003DCF60E082E00E94A60060E083E00E94C8
:100DF000A60085E00E9487009FCF82E691E00E94D6
:100E000026036AE181E292E00E947F02082F10E04F
:100E10006091350270913602072E000C880B990BF9
:100E20000E946F0724E832EF4EE45EE40E946807F8
:100E300087FD35C08DE990E0081B190B1801012EC4
:100E4000000C4408550817FF2DC06DE284E891E0BE
:100E50000E94ED0122273327A901221933094409F1
:100E6000550919A28E010F5D1F4FCA01B901A501D5
:100E700094010E94CE07605DF80162938F012115F5
:100E800031054105510589F70115110519F0C80112
:100E90000E94260387E391E00E942603B2CE84EAF3
:100EA00090E0CACFA201910119A28E010F5D1F4FE0
:100EB000CA01B901A50194010E94CE07605DF80145
:100EC00062938F01211531054105510589F7DCCF6A
:100ED0000E94AA0708F481E00895E89409C097FBEE
:100EE0003EF490958095709561957F4F8F4F9F4F01
:100EF0009923A9F0F92F96E9BB279395F695879545
:100F000077956795B795F111F8CFFAF4BB0F11F407
:100F100060FF1BC06F5F7F4F8F4F9F4F16C08823AE
:100F200011F096E911C0772321F09EE8872F762FE4
:100F300005C0662371F096E8862F70E060E02AF025
:100F40009A95660F771F881FDAF7880F9695879511
:100F500097F90895990F0008550FAA0BE0E8FEEFE6
:100F600016161706E807F907C0F012161306E4076D
:100F7000F50798F0621B730B840B950B39F40A2666
:100F800061F0232B242B252B21F408950A2609F444
:100F9000A140A6958FEF811D811D0895A1E21A2E13
:100FA000AA1BBB1BFD010DC0AA1FBB1FEE1FFF1F0D
:100FB000A217B307E407F50720F0A21BB30BE40B5D
:100FC000F50B661F771F881F991F1A9469F76095A4
:100FD0007095809590959B01AC01BD01CF0108955E
:100FE000EE0FFF1F0590F491E02D0994F894FFCFC8
:100FF0004C014C010100000000ED014D017A013A65
:1010000002AB0189019D01000000000D03D2022303
:10101000038202C402A90283024C6F52612052650E
:10102000636569766572000D0A00537461727469B4
:101030006E67204C6F5261206661696C65642100A7
:101040005265636569766564207061636B657420C1
:1010500027002720776974682052535349200000E5
:107E0000112484B714BE81FFF0D085E080938100F7
:107E100082E08093C00088E18093C10086E0809377
:107E2000C20080E18093C4008EE0C9D0259A86E02C
:107E300020E33CEF91E0309385002093840096BBD3
:107E4000B09BFECF1D9AA8958150A9F7CC24DD24C4
:107E500088248394B5E0AB2EA1E19A2EF3E0BF2EE7
:107E6000A2D0813461F49FD0082FAFD0023811F036
:107E7000013811F484E001C083E08DD089C08234E0
:107E800011F484E103C0853419F485E0A6D080C0E4
:107E9000853579F488D0E82EFF2485D0082F10E0AE
:107EA000102F00270E291F29000F111F8ED06801E7
:107EB0006FC0863521F484E090D080E0DECF843638
:107EC00009F040C070D06FD0082F6DD080E0C81688
:107ED00080E7D80618F4F601B7BEE895C0E0D1E017
:107EE00062D089930C17E1F7F0E0CF16F0E7DF06D8
:107EF00018F0F601B7BEE89568D007B600FCFDCFD4
:107F0000A601A0E0B1E02C9130E011968C91119780
:107F100090E0982F8827822B932B1296FA010C0160
:107F200087BEE89511244E5F5F4FF1E0A038BF0790
:107F300051F7F601A7BEE89507B600FCFDCF97BE46
:107F4000E89526C08437B1F42ED02DD0F82E2BD052
:107F50003CD0F601EF2C8F010F5F1F4F84911BD097
:107F6000EA94F801C1F70894C11CD11CFA94CF0C13
:107F7000D11C0EC0853739F428D08EE10CD085E9AC
:107F80000AD08FE07ACF813511F488E018D01DD067
:107F900080E101D065CF982F8091C00085FFFCCF94
:107FA0009093C60008958091C00087FFFCCF809118
:107FB000C00084FD01C0A8958091C6000895E0E648
:107FC000F0E098E1908380830895EDDF803219F02E
:107FD00088E0F5DFFFCF84E1DECF1F93182FE3DFCA
:107FE0001150E9F7F2DF1F91089580E0E8DFEE27F6
:047FF000FF270994CA
:027FFE00040479
:0400000300007E007B
:00000001FF
